:020000040800F2
:10000000D04A00209D010008F14400080D35000889
:10001000F9410008150E0008FD5A00080000000014
:1000200000000000000000000000000005010008C2
:10003000CD11000800000000490100083F530008EE
:10004000B7010008B7010008B7010008B7010008B0
:10005000B7010008B7010008B7010008B7010008A0
:10006000B7010008B7010008B7010008B701000890
:10007000B7010008B7010008B70100084D110008DA
:10008000B7010008B7010008B7010008B701000870
:10009000B7010008B7010008B7010008B701000860
:1000A000B7010008B7010008B7010008B701000850
:1000B000D5530008B7010008E1530008B701000854
:1000C000B7010008B7010008B7010008B701000830
:1000D000B7010008B55A0008C15A0008B701000866
:1000E000B7010008B7010008B7010008DFF810D019
:1000F00000F08EFC00480047C9680008AFF300809C
:10010000D04A0020224B19680868B0E8F00F80F34D
:100110000988BFF36F8F4FF0000080F311884EF015
:100120000D0E70470000000006480068006880F36C
:10013000088862B661B6BFF34F8FBFF36F8F00DFE1
:1001400000BF00BF08ED00E0EFF30980BFF36F8F41
:100150000F4B1A6820E9F00F106008B54FF05000FF
:1001600080F31188BFF34F8FBFF36F8F08F0F6FA5B
:100170004FF0000080F31188BDE808401968086856
:10018000B0E8F00F80F30988BFF36F8F704700BFAE
:100190005C000020EFF305807047000006488047B0
:1001A00006480047FEE7FEE7FEE7FEE7FEE7FEE75C
:1001B000FEE7FEE7FEE7FEE7D1530008ED0000088A
:1001C0002DE9F05F0546002092469B46884606468C
:1001D000814640241BE0284641464746224600F01F
:1001E00020F853465A46C01A914110D3114618467A
:1001F000224600F03FFB2D1A67EB01084F462246CE
:100200000120002100F036FB17EB00094E41201EB3
:10021000A4F10104DFDC484631462A464346BDE8E6
:10022000F09F202A04DB203A21FA02F000217047D7
:1002300021FA02F3D040C2F120029140084319464E
:10024000704740EA01039B0703D009E008C9121F69
:1002500008C0042AFAD203E011F8013B00F8013B80
:10026000521EF9D27047D2B201E000F8012B491EAC
:10027000FBD270470022F6E710B513460A46044643
:100280001946FFF7F0FF204610BD421E12F8013F4D
:10029000002BFBD111F8013B02F8013B002BF9D1F7
:1002A000704730B505462A460B4612F8010B13F885
:1002B000014B08B1A042F8D01CB1002802D06D1C3F
:1002C000F1E7284630BDCAB2401E10F8011F8A422D
:1002D00002D00029F9D100207047421C10F8011B00
:1002E0000029FBD1801A704710B5044600E0401C7D
:1002F0000378002BFBD100E0401C521E04D311F800
:10030000013B0370002BF7D100210170204610BD86
:10031000034611F8012B00F8012B002AF9D11846E9
:100320007047F0B480EA0102D40F4200B2EB410FF3
:1003300002D20246084611464A0042D0C30DDDB241
:10034000C1F3C752AD1A202D35DAC1F3160141F4BD
:10035000000204B15242C5F1200602FA06F12A4118
:100360001044B3EBD05F23D0C4B1012DA0EBC35038
:1003700009DCF0BC4FF0004202EAC352DBB200F5E8
:10038000000000F0A1BA400000F1807000EBC35003
:10039000A0F1807040EAD170490009E0490841EAC3
:1003A000C071A0EBC35000F50000400800EBC35043
:1003B000F0BC00F080BA6142012202EB4101001B57
:1003C000F6E7F0BC704781F00041AAE780F00040FA
:1003D000A7E780EA010210B502F00043400022D0F6
:1003E0004A001FD0010E01EB1261C0F35600C2F3A8
:1003F000560240F4000042F40002A0FB0220000478
:100400007F39140400D0401C50EA124001D440004F
:10041000491EC2B20C0604EBD010401C4008802AD2
:1004200002D003E0002010BD20F00100002900DA16
:100430000020184310BD420005D0C0F3C7525242FD
:10044000914201DC0020704700EBC15070472DE95C
:10045000FE4F804681EA0300C00F0C46009021F059
:10046000004123F00045B8EB0200A94105D2404607
:10047000214690461C460B46024623F0004010439E
:1004800047D0270DC7F30A00C3F30A510290401A60
:10049000019040286BDAC3F3130040F4801B0098EE
:1004A000924620B10023D2EB030A63EB0B0B0198B9
:1004B0005946C0F14002504600F0DCF906460D46B0
:1004C00050465946019A00F0E4F910EB08006141EA
:1004D000002487EA115284EAE7731A4340D0009A55
:1004E00062B3019A012A4FEA075215DC001B61EB47
:1004F00002014FF0004202EA0752CDE90042001C1F
:1005000041F5801132462B4600F01BFA03B0BDE8DE
:10051000F08F40462146F9E7001B61EB0201001C09
:1005200041F5801300185B412018A2F5001747EB36
:10053000030140EAD570B6196D4111E06D084FEA2C
:10054000360645EAC0754FEA0752001B61EB02010F
:10055000001C41F5801149084FEA30000019514153
:1005600032462B4603B0BDE8F04F00F0DBB90098EF
:10057000012240000023D0EB020263EBE0730098FD
:1005800021464FEAE074B8EB000061EB0401E9E7B3
:1005900083F000435BE781F0004158E72DE9FE4F0F
:1005A00081EA030404F0004421F0004100944FF07C
:1005B000000B23F0004350EA01045ED052EA03042A
:1005C0005BD0C3F30A54C1F30A552C44A4F2F334AC
:1005D0000194A0FB0254C1F3130141F48011C3F351
:1005E000130343F4801301FB024400FB034E840A0F
:1005F000970A44EA815447EA8357A4FB07680295A7
:100600008D0A05FB07854FEA932C04FB0C54270544
:10061000029D4FEA065847EA1637B5EB08056EEB20
:10062000070C870E920E47EA811742EA8312A7FB56
:100630000201B6EB0B0164EB00042B0D43EA0C3313
:100640005E1844EB1C50DA465146E7FB0201C5F345
:1006500013044FEA0B3343EA14534FEA0432019C6C
:1006600043EA0603A4F10C040294009CCDE900B413
:1006700000F067F903B0BDE8F08F00200146F9E70C
:100680002DE9F04D81EA030404F0004B21F0004510
:1006900014464FF0000A23F0004150EA050220D032
:1006A00054EA01021DD0C5F30A570246C5F31303ED
:1006B000C1F31300C1F30A5640F4801543F48013CC
:1006C000A7EB0608101BD64608F2FD3873EB0500B1
:1006D00002D308F1010801E092185B41B8F1000F64
:1006E00003DA00200146BDE8F08D00204FF48011B0
:1006F000064684460EE0171B73EB050705D3121B55
:1007000063EB050306434CEA010C49084FEA30004D
:1007100092185B4150EA0107EDD152EA030012D072
:1007200082EA040083EA0501084305D0101BAB41AF
:1007300006D20122002306E000224FF0004302E02F
:100740006FF0010253101AEB06004CEB085110EB4E
:100750000A0041EB0B01BDE8F04D00F0E3B870B5C5
:1007600021F0004303430CD0C1F30A550024D5EB1C
:10077000040564EB0403D617AD1AB34102DB002075
:10078000014670BD201841EB025170BD9623002236
:10079000114600F099B80EB5C10F80EAE070084428
:1007A000CA07002140F233438DE80E000A460B468B
:1007B00000F0C7F803B000BD00F0004230F0004088
:1007C0000AD0C10D01F56071C0F3160042EA015173
:1007D000C2084007114370470020014670470000DF
:1007E00030B5041E71F1000404DB4FF000444042B8
:1007F00064EB0101141E73F1000405DB1C464FF08D
:100800000043524263EB0403994208BF904230BD5B
:1008100001F0004330B421F0004150EA010206D05B
:100820000A0DA2F56072C1F31301002A02DC30BC8C
:1008300000207047440F44EAC104C100E01830BCF6
:1008400000EBC25000F037B830B50B46014600202F
:100850002022012409E021FA02F59D4205D303FA82
:1008600002F5491B04FA02F52844151EA2F1010203
:10087000F1DC30BD202A04DB203A00FA02F100202E
:1008800070479140C2F1200320FA03F319439040CE
:100890007047202A06DBCB17203A41FA02F043EAE0
:1008A000E07306E041FA02F3D040C2F12002914029
:1008B0000843194670470029A8BF7047401C4900EB
:1008C00008BF20F00100704710B4B0FA80FC00FAB5
:1008D0000CF050EA010404BF10BC704749B1CCF1E0
:1008E000200421FA04F411FA0CF118BF012121436C
:1008F0000843A3EB0C01CB1D4FEA00614FEA102027
:1009000042BF002010BC704700EBC35010440029C8
:10091000A4BF10BC7047401C490008BF20F0010074
:1009200010BC704710B5141E73F1000408DA401CA7
:1009300041F1000192185B411A4301D120F00100FE
:1009400010BD2DE9F04D92469B4611B1B1FA81F2EE
:1009500002E0B0FA80F220329046FFF78BFF0446A7
:100960000F4640EA0A0041EA0B0153465A46084343
:1009700013D0114653EA010019D0C8F14002504685
:10098000FFF74FFC05460E46504659464246FFF7D4
:1009900071FF084305D0012004E020463946BDE838
:1009A000F08D0020054346EAE0762C4337430A9851
:1009B0006305E40AA0EB08000022FD0A44EA47545C
:1009C0000A3002D500200146E9E701051019694106
:1009D000DDE9084500196941BDE8F04DA2E7C1F322
:1009E0000A52C1F3130140F2FF3341F480119A42DD
:1009F00002DA00200146704740F233439A42A2F2E5
:100A0000334202DC5242FFF70CBCFFF733BF000059
:100A1000064C074D06E0E06840F0010394E807004B
:100A200098471034AC42F6D3FFF764FB0C9C0008E7
:100A30002C9C00082DE9F04D00231A461B1A8A4110
:100A400003DB00200146BDE8F08DC1F30A52C1F37B
:100A5000130141F480154FF0000BD10702D10018AB
:100A60006D41521E0027044640F2FF11384601EB4B
:100A7000620A3E468046024600204FF48011FFF78E
:100A8000D0FBC2197141BB1846EB0100B4EB030C5B
:100A900075EB000C04D3E41A65EB000517460E460F
:100AA000241908F101006D4180463428E3DDF9196D
:100AB00046EB0600091BA84103D24FF0FF32134654
:100AC00001E0002213461BEB070046EB0A51BDE88C
:100AD000F04DFFF727BF000070B50446006881683D
:100AE000C943C90717D1816821F00101816001F074
:100AF00027FB05460AE000BF01F022FB401B02284D
:100B000004D920688068C043C00706D02068806888
:100B1000C043C007F0D0002070BDA06A40F01000B4
:100B2000A062E06A40F00100E062012070BD0000B8
:100B3000F8B500260446009600688168C943C907D5
:100B40002DD0816841F00101816016481649006886
:100B5000B0FBF1F000E0401E00900028FBD101F056
:100B6000EFFA054616E000BF01F0EAFA401B022842
:100B700010D920688068C043C0070BD0A06A40F03D
:100B80001000A062E06A40F00100E06284F8246096
:100B90000120F8BD20688068C043C007E4D1002070
:100BA000F8BD00005800002040420F0010B5044678
:100BB00000F0D2FF0A21204600F030FF204600F06E
:100BC00057FE80B210BD00002DE9F0478946002194
:100BD0000D460C466FF02B0CDFF820A1089E37E085
:100BE000002701E0491C7F1CB14204D213F80180A8
:100BF000B8F1200FF6D0B1422CD0A6EB0108B8F125
:100C0000020F04D313F80180B8F10D0F02D013F8CE
:100C1000018003E003EB010898F80180B8F10A0FA6
:100C200015D067B95F5C3D2F0CD07F2F07D800BF70
:100C30001AF807707F2F02D0402F07D234B16046D8
:100C4000BDE8F087641C022CF9D8F1E76D1C491C43
:100C5000B142C5D3A5B1EE0806EB4606770005F014
:100C6000070505EB4506072505EB460507EBD5050A
:100C70002C1B08B1A14505D26FF029001460DFE7F5
:100C8000002038E0032600252F46044630E000BF50
:100C900093F800C0BCF10D0F28D0BCF10A0F25D08D
:100CA000BCF1200F22D01AF80CC0BCF1400F0AD0C2
:100CB0004FF0000865F39F1C7F1CA6EB08066546F5
:100CC000042F03D012E04FF00108F3E700276EB1C4
:100CD0004FEA154C04F801CB012E07D94FEA152C29
:100CE00004F801CB022E01D904F8015B491E5B1CFC
:100CF0000029CDD1201A10600020A1E7229A000817
:100D00002DE9F04F0025099EAB46AEB10327B6FB97
:100D1000F7FCB6FBF7F407FB1C6CBCF1000F01D02D
:100D20004FF0010C64446FF0290CB4F1804F06D3EE
:100D30004FF0FF3010600FE0C2F800B064E0A40094
:100D4000641CA14207D330B1B6FBF7F101EB410AB5
:100D500004462F492AE014606046BDE8F08F00BFCA
:100D600013F801CBED1C13F8019B4FEA9C084FEAE6
:100D70000C1C0CEB291C13F8017B11F808800CF0FB
:100D80003F0C04F8018B11F80CC004F801CB4FEABA
:100D9000890C0CEBA71C0CF03F0C07F03F0711F877
:100DA0000CC004F802CBCF5D04F8017C5545D7D3C5
:100DB000B54224D213F801CB3D276D1CB54201D2B8
:100DC0001B7801E04FF000034FEA9C054D5D04F8ED
:100DD000015B4FEA0C1505EB231505F03F054D5D52
:100DE00004F8015B07D24FF03C0505EA8303C95CB8
:100DF00004F8011B01E004F8017B04F8017BA4EB7B
:100E00000000106084F800B04FF00000A5E700007B
:100E1000E2990008FEE700002DE9F0411E48FFF7C7
:100E2000C5FEFFF7B3FC1D4F3946FFF7D2FA6FF04E
:100E30000B01FFF700FB0646FFF7BEFC04460D461C
:100E400022462B4616A004F05BFE204629464FF0B2
:100E5000FF32FFF784FC04460D4631463846FFF763
:100E6000B2FAFFF7A9FC22462B46FFF709FCFFF771
:100E7000CFFCFFF7A1FC02460B464FF00054104890
:100E80001049FFF7FDFB22460F4B05F0EDFDBDE8D5
:100E9000F041FFF7BDBC00001C0100200000A04095
:100EA0004D71375FE4B880E6B0A7E58C96E7A2B352
:100EB0005F766F6C203A20252E32660D0A00000006
:100EC000E17A14C5100762407CE1004070B50E461F
:100ED00005460624FFF701FA82B241F2883329461B
:100EE000114802F0C2FA00BF05F0CEFB0028FBD08B
:100EF0000E4A0FA1104804F0E9FD4FF47A7508E09E
:100F0000641E14F0FF0401D101F0EAF9284601F053
:100F100003F831460548FFF7C4F90028F0D0BDE8D2
:100F2000704000F055B9000024020020F8070020AE
:100F300025730D0A00000000DC01002070B50E468C
:100F400005460C24FFF7C9F982B24FF47A7329469B
:100F5000124802F08AFA02E0322000F0DDFF05F0CC
:100F600093FB0028F8D04FF4FA7531460C48FFF790
:100F700098F918B1BDE8704000F02AB9084A09A1F3
:100F80000B4804F0A3FD641E14F0FF0401D101F02E
:100F9000A7F9284600F0C0FFE7E700002402002080
:100FA000F8070020776966693A25730D0A0000008A
:100FB000DC01002010B5044605F066FB58B10AA11B
:100FC0000B48FFF76EF930B13A21FFF77CF90028A2
:100FD00000D0401C10BD052000F09EFF2046641E7E
:100FE000A4B2E9D210BD00004950442C000000001A
:100FF000F807002070B50C46054607F0A7FB214610
:10100000284604F055F9BDE8704007F0FDBF000028
:101010002DE9F0471A4C01200025A071282005F089
:10102000CDFA184F4FF400663146384604F06AF99D
:101030003146384601F072F8F8B9502005F0BEFA92
:101040003146B846384601F069F8FF2710B1002054
:10105000A07100E0A771B14646464946304601F00E
:101060005DF838B16D1CEDB2642D05D2012005F09C
:10107000A5FAF2E7642D00D3A771A079BDE8F08747
:10108000340000200008014070B500254FF40066D0
:10109000154C06E06D1CADB2642D0ED8012005F094
:1010A0008DFA3146204601F039F80128F2D00025AA
:1010B00008E06D1CADB2642D01D9FF2070BD012088
:1010C00005F07CFA3146204601F028F80028F0D0DF
:1010D000282005F073FA3146204601F01FF8012858
:1010E000ECD0002070BD00000008014070B5002564
:1010F0004FEA0504FFF7C8FFFF2807D0641C40EA49
:101100004500E4B2C5B2082CF4D3284670BD0000F7
:1011100070B50D4D4FF400642146284604F0FDF8EB
:1011200000222146284601F006F844F6206005F02A
:1011300045FA01222146284600F0FDFFBDE8704037
:101140001E2005F03BBA000000080140014800F0F5
:10115000D3BD00006C02002030B590F8405001244F
:10116000AC40C56B6C60046863604368102B036817
:1011700003D099600068C26030BD9A600068C160A9
:1011800030BD0000F8B50E46054608230AA210211E
:10119000002003F054FB082400943278022310212D
:1011A000182003F029FB00942A78032310215820EB
:1011B00003F022FBF8BD000020543A3030432020D9
:1011C00020483A30303025200000000070470000F1
:1011D00010B54FF480710348FFF74CF80249002026
:1011E000488010BDF80700203C00002010B54FF4E7
:1011F00080710348FFF73EF802490020C88010BD07
:10120000F80800203C00002010B54FF4FA74204686
:1012100000F082FEFFF7DCFF22A1244804F056FC18
:1012200002E0642000F078FE21A122A000F0BCF8CA
:101230000028F6D121A11D4804F048FC02E0204618
:1012400000F06AFE1CA120A000F0AEF80028F6D144
:1012500020A1164804F03AFC02E0642000F05CFE95
:1012600013A11FA000F0A0F80028F6D120A10F487C
:1012700004F02CFC02E0642000F04EFE0CA121A042
:1012800000F092F80028F6D122A1084804F01EFCD4
:1012900023A125A0FFF752FEBDE8104029A1034875
:1012A00004F014BC312E2041540D0A00DC01002052
:1012B0004F4B000041540D0A00000000322E205216
:1012C00053540D0A0000000041542B5253540D0A90
:1012D00000000000332E2043574D4F44450D0A00B7
:1012E00041542B43574D4F44453D310D0A000000FA
:1012F000342E2041542B4357444843503D312C3128
:101300000D0A000041542B4357444843503D312CB3
:10131000310D0A00352E2043574A41500D0A000076
:10132000474F54204950000041542B43574A4150E5
:101330003D224857222C223636363636363636226D
:101340000D0A0000362E20455350383236362049DB
:101350006E6974204F4B0D0A0000000070B50E46F8
:1013600005460424FEF7B9FF82B241F288332946CC
:101370000B4802F07AF80EE005F086F940B13146EC
:101380000848FEF78EFF18B1FFF722FF002070BD5E
:10139000052006F0BFFF641EE4B2EDD2012070BD4F
:1013A00024020020F807002070B50E460546C82428
:1013B000FEF793FF82B24FF47A7329460E4802F08B
:1013C00054F813E005F060F968B10C4A0CA10E481E
:1013D00004F07CFB31460948FEF763FF18B1FFF7C4
:1013E000F7FE002070BD052000F096FD641EE4B2FB
:1013F000E8D2012070BD000024020020F807002080
:1014000025730D0A00000000DC01002030B589B012
:101410000C460546FFF7DCFE224609A1684604F0AB
:1014200099FB0BA16846FFF799FF002806D141F20E
:10143000883322462946074802F017F809B030BD24
:1014400041542B43495053454E443D25640D0A00F9
:101450003E0000002402002030B589B00C4605464D
:10146000FFF7B6FE224609A1684604F073FB0BA104
:101470006846FFF799FF002806D141F288332246DB
:101480002946074801F0F1FF09B030BD41542B4314
:10149000495053454E443D25640D0A003E0000006E
:1014A0002402002072B6FEE770B51AA004F028FBF3
:1014B0000024FFF7A9FE642000F02EFD18A11F48AC
:1014C00004F004FB1EA120A0FFF700FD322000F075
:1014D00023FD29A1194804F0F9FA4FF4FA7509E03F
:1014E0002046641CE4B2042801D100F0F9FE28462D
:1014F00000F012FD03F08CFB0028F1D103F038FB63
:1015000027A10E4804F0E2FABDE87040002007F081
:10151000CFB800007461736B7461736B0D0A0000C7
:10152000436F6E6E656374204D5154547320536540
:10153000727665722E2E2E0D0A000000DC0100204E
:10154000434F4E4E4543540041542B43495053544E
:101550004152543D22544350222C226D71747473B5
:101560002E6865636C6F7564732E636F6D222C310A
:101570003838330D0A000000436F6E6E65637420C7
:101580004D515454205365727665722053756363D0
:101590006573732D2D4F4B4F4B4F4B4F4B0D0A0027
:1015A0002D2D2D2D2D2D2D2D2D2D2D2D2D2D2D2D6B
:1015B0002D2D2D2D2D2D2D2D2D2D2D53756273633C
:1015C00072696265EFBC8C5375636365737366758E
:1015D0006C0D0A0010B51021034800F09FFD002893
:1015E00000D0012010BD0000000801401248C17861
:1015F000491CCAB20021C270642A03D3C170827828
:10160000521C827082783C2A03D381704278521C2B
:10161000427042783C2A03D341700278521C027017
:101620000278182A00D101700179012902D1C188FC
:10163000491CC180704700002600002010B50446F8
:1016400006F09AFC78B10CA10D48FEF72AFE30B1E5
:101650003A21FEF738FE002800D0401C10BD09A139
:101660000D4804F033FA052006F054FE2046641EAF
:10167000A4B2E5D210BD00004950442C0000000087
:10168000F80800202249504422206E6F7420666FB3
:10169000756E640D0A000000DC010020F8B500251D
:1016A0000446009590F8240001280BD0012084F80E
:1016B00024002046FFF710FA2046FFF739FA06000B
:1016C00002D050E00220F8BDA06A20F4885040F01B
:1016D0000200A062022000F015FE25490968B1FB56
:1016E000F0F0400000E0401E00900028FBD1206890
:1016F000816841F00801816000F022FD074608E0A2
:1017000000F01EFDC01B0A2803D92068806800076E
:1017100015D4206880680007F2D42068816841F001
:101720000401816000F00CFD074612E000F008FDA6
:10173000C01B0A280DD920688068400709D5A06A17
:1017400020F0020040F01000A06284F82450012034
:10175000F8BD206880684007E8D4A06A20F0020045
:1017600040F00100A06284F824503046F8BD00002B
:1017700058000020F8B50024009490F82420254655
:10178000012A12D0012280F824204A681F23072A48
:101790000DD20668776B521E02EB820293409F4384
:1017A0000B6893401F43776319E00220F8BD066879
:1017B0000D2A0AD2376BD21F02EB820293409F435D
:1017C0000B6893401F43376309E0F76A0D3A02EB59
:1017D000820293409F430B6893401F43F7620A685D
:1017E000072306680A2A0AD3F7680A3A02EB42027C
:1017F00093409F438B6893401F43F76008E037692D
:1018000002EB420293409F438B6893401F43376132
:101810000A68102A01D0112A20D1124B02689A427C
:1018200017D193681B0219D4936843F400039360A3
:101830000968102912D10C490C4A0968B1FBF2F170
:1018400001EB8101490000E0491E00910029FBD114
:1018500004E0816A41F020018162012480F8245073
:101860002046F8BD002401405800002040420F00EF
:101870000068C06C704700002DE9F0414FF0000790
:1018800004003D467ED0A06A002628B9E66284F8AE
:101890002460204600F07EF82046FFF71DF9A16A7B
:1018A000C90600D420B1A06A40F01000A06269E02F
:1018B000A16A21F4885141F00201A1626268E169E4
:1018C000237B0A4347EA43010A43A1684FF4807728
:1018D000B94209D0012907D05FF0000194F814C083
:1018E000BCF1010F02D00AE03946F7E7F3B1A36A71
:1018F00043F02003A362E36A43F00103E362236839
:10190000D3F804C02CF4694C4CEA010CC3F804C0B1
:1019100021688B68DFF870C003EA0C0313438B6007
:10192000A168B9420BD0012909D00CE0DFF85CC0F6
:10193000A3690CEB43330B4343F40061DFE7218AD7
:101940000D05A5F580152168CB6A23F470032B43A0
:10195000CB62216889680E4B1940914208D1E6623A
:10196000A16A21F0020141F00101A162BDE8F0810C
:10197000A06A20F0020040F01000A062E06A40F08F
:101980000100E0620120F1E7FDF7E1FF00E0FFFF69
:10199000FE0E1FFF10B586B000210091019102914B
:1019A00003911A4C03681A4903221A48A34211D121
:1019B0008B6943F400738B618B6903F400730493A8
:1019C0008B6943F004038B61896901F00401049180
:1019D000202113E0104CA34215D18B6943F480639E
:1019E0008B618B6903F4806304938B6943F0040378
:1019F0008B61896901F0040104910121CDE9001294
:101A0000694600F09BFA06B010BD000000240140BA
:101A10000010024000080140002801402DE9F84371
:101A200000270D460446009700F08AFB8046206898
:101A30008168C90508D5A06A40F02000A06284F83A
:101A400024700120BDE8F8834168C90503D4C06A49
:101A500010F4700F2AD0022000F054FC3B490968B2
:101A6000B1FBF0F62068036939490B424FEA610186
:101A70004FEAA1121FD1C3684FEA611C13EA0C0F91
:101A800019D103690B4225D1C068104222D114201C
:101A900023E0681C0AD02DB100F052FBA0EB080037
:101AA000A84203D920680068800725D5206800680F
:101AB0008007EED52DE003690B4202D1C1681142C7
:101AC00006D0026923490A4206D1C068084203D100
:101AD000542002E0292000E0FC204643009816E054
:101AE000681C11D02DB100F02BFBA0EB0800A84220
:101AF0000AD90098B04207D2A06A40F00400A06260
:101B000084F8247003209DE70098401C0090B042A8
:101B1000E6D321686FF012000860A06A40F40070FC
:101B2000A06220688068C0F3424007280CD1207B67
:101B300050B9A06A20F48070A062A06AC00403D4E7
:101B4000A06A40F00100A06200207BE7580000205E
:101B5000244992244992240070B5044690F8240048
:101B600001280DD0012084F824002046FEF7E0FF74
:101B700002004FF0000005D084F82400104670BD2C
:101B8000022070BDA16A40F20123994341F48071A3
:101B9000A1621F4D23681F49AB4218D10E6816F48D
:101BA000702F14D0A66A46F48016A6620E687605D9
:101BB00005D5A66A26F4005646F48056A662A66AA3
:101BC000F6040AD5E66A26F00606E66206E0A66A8C
:101BD00026F48016A6625E68E9E7E06284F82400D5
:101BE0006FF00200186020688368C3F34243072B3C
:101BF00005D1A84208D1096811F4702F04D081687A
:101C000041F480118160B9E7816841F4A001F9E7EE
:101C1000002801400424014010B590F82110002252
:101C2000022905D00421816380F82020012010BD05
:101C300001680B6823F00E030B6001680B6823F04A
:101C400001030B6090F84030C46B012101FA03F3EB
:101C5000636080F8211080F82020104610BD00003D
:101C600010B590F821100024022903D004218163CB
:101C700001243DE001680A6822F00E020A60016852
:101C80000A6822F001020A601A4A0168914201D1F1
:101C9000012121E0174A1432914201D110211BE0A9
:101CA000144A2832914201D1891515E0114A3C327B
:101CB000914201D189140FE00E4A5032914202D173
:101CC0004FF4803108E00B4A6432914202D14FF464
:101CD000801101E04FF08071064A083A51600121FD
:101CE00080F82110002180F82010416B01B1884755
:101CF000204610BD080002402DE9F05FC16B0C6862
:101D000001680B68D0F840C0042202FA0CF2494D79
:101D1000DFF824A1494E4A4FDFF828B1DFF828E167
:101D200022422CD05A072AD50A68920603D40A68A0
:101D300022F004020A600168A94201D1042219E0DC
:101D4000514501D1402215E0B14202D14FF48062E9
:101D500010E0B94202D14FF480420BE0594502D164
:101D60004FF4802206E0714502D14FF4800201E079
:101D70004FF080622F4908394A60C16A3BE04FF05A
:101D8000020808FA0CF818EA040F4FF000094FF0A7
:101D9000010235D05FEA837832D50B689B0605D403
:101DA0000B6823F00A030B6080F821200168A94228
:101DB00001D1022219E0514501D1202215E0B142A2
:101DC00002D14FF4007210E0B94202D14FF4005238
:101DD0000BE0594502D14FF4003206E0714502D1C3
:101DE0004FF4001201E04FF00072124908394A60C6
:101DF00080F82090816A00291AD0BDE8F05F08477A
:101E0000082505FA0CF5254212D01B0710D50B68E2
:101E100023F00E030B6090F84010C36B02FA01F13F
:101E20005960826380F8212080F82090016BE2E7FE
:101E3000BDE8F09F080002401C0002403000024054
:101E400044000240580002406C00024030B528B304
:101E500008C8134914221944B1FBF2F18900C16387
:101E600010498163022141771A6843F6F0718A4371
:101E7000D0E900142143D0E902452C4321430469F1
:101E8000214344692143846921431143196000219E
:101E90004163012242770177084630BD012030BD01
:101EA000F8FFFDBF0000024070B5044690F8200026
:101EB000002501280CD0012084F8200094F821602E
:101EC0000020012E06D084F820000225284670BD8F
:101ED000022070BD022684F82160A0632068066895
:101EE00026F0010606602046FFF736F9E06A002872
:101EF0002068016802D041F00E0106E021F00401E3
:101F000001602068016841F00A01016020680168F1
:101F100041F001010160D9E770B5044600F010F905
:101F20000546601C02D004480078044400F008F91B
:101F3000401BA042FAD370BD4C0000202DE9F84FA1
:101F4000DFF8B8910024A9F1040B23460F2709F10B
:101F5000040AABF1040EC9E00125A5402A40AA42BB
:101F60007DD1674ED1F804C0ACEB0608B44532D041
:101F700014DCBCF1030F3AD009DCBCF1000F2AD00D
:101F8000BCF1010F1CD0BCF1020F31D11DE0BCF13E
:101F9000110F17D0BCF1120F2AD119E0B8F5881F24
:101FA00019D006DCB8F5803F15D0B8F5801F1FD1D9
:101FB00011E0B8F5001F0ED0B8F5041F18D10AE0E3
:101FC000CB6815E0CB681B1D12E0CB6808330FE02F
:101FD000CB680C330CE08B682BB1012B4FF008035E
:101FE00003D0456104E0042302E0056100E0002322
:101FF000FF2A01D8064601E000F104064FEA8405F5
:1020000001D9A5F12005D6F8008007FA05FC28EAD9
:102010000C0803FA05F548EA0508C6F800804D6883
:10202000ED0062D5374DAE6946F00106AE61AD698F
:1020300024F0030605F001050095334D06EB050C71
:10204000DCF80850A607360F07FA06F825EA080557
:10205000DFF8B880404503D14FF0000817E044E0B6
:10206000DFF8AC80404502D14FF001080FE0DFF807
:10207000A480404502D14FF0020808E0DFF89880C4
:10208000404502D14FF0030801E04FF0040808FA80
:1020900006F848EA0508CCF808804D68D9F80060D1
:1020A000ED024D4601D5164300E096432E604D6883
:1020B000DAF80060AD02554601D5164300E09643BC
:1020C0002E604D68DBF80060AD035D4601D5164318
:1020D00000E096432E604D68DEF80060ED03754623
:1020E00001D5164300E096432E60641C0D682A4615
:1020F000E5407FF431AFBDE8F88F000008040140EF
:1021000000001110001002400000014000080140D2
:10211000000C01400010014000140140806808409C
:1021200000D001207047C26821EA02030A4043EA56
:102130000241016170470AB1016170470904FBE780
:1021400001488068704700004C0000200248816808
:1021500002781144816070474C000020074810B598
:10216000016841F010010160032000F0A7F8002091
:1021700000F006F800F050F8002010BD00200240EA
:1021800030B505461F4887B0C16941F00401C161FF
:10219000C06906A900F00400009001A800F010FA40
:1021A0000498B0B100F02CFA40001749174AB0FB70
:1021B000F1F11748491E0260416040F2E732002108
:1021C000C0E903218160816100F050FC040003D06C
:1021D00015E000F015FAE8E70D4800F09DFC04005A
:1021E0000DD11E2000F03CF8102D07D20022294608
:1021F0001E2000F043F80748056000E0012407B006
:10220000204630BD0010024040420F000008004050
:10221000B0030020500000200F4808B5816941F04C
:1022200001018161816901F001010091C16941F001
:102230008051C161C069002200F0805000900F21E0
:10224000901E00F01BF80548416821F0E06141F064
:102250000071416008BD0000001002400000014014
:10226000002809DB00F01F02012191404009800095
:1022700000F1E020C0F8001170470000F0B40E4BF0
:102280001B680C46C3F30223C3F10705042D00D9D4
:102290000425191D072901D2002300E0DB1E0126B9
:1022A00006FA05F1491E214099409E40761E1640CF
:1022B0003143F0BC03F090BC0CED00E0064900F0A7
:1022C000070208684FF6FF03184040EA0220034A5D
:1022D00010430860704700000CED00E00000FA05B4
:1022E000BFF34F8F05480168054A01F4E0611143CF
:1022F0000160BFF34F8F00BFFDE700000CED00E071
:102300000400FA0510B501460020234C012922D013
:10231000022939D010291DD161682268D20119D54E
:102320001E48C1F38342C903805C0AD561681B4A19
:10233000C1F34041921E515C194AB2FBF1F148438E
:1023400001E0184948436168490203D44000032171
:10235000B0FBF1F010BD226AC2F30121012903D1C3
:10236000920701D5C80310BD022905D1626A920700
:1023700002D549F6404010BD0329FCD121688903EC
:10238000F9D54FF2244010BD00F04AF96168C1F35D
:102390008131491C4900DBE700100240B69A000871
:1023A00000127A0000093D002DE9F8430546007847
:1023B000354CC00754D0E0690026C00008D4E0695D
:1023C00040F08050E061E069012600F0805000900C
:1023D0002E480168C90512D40168804641F4807115
:1023E0000160FFF7ADFE074605E000BFFFF7A8FE5E
:1023F000C01B642823D8D8F80000C005F6D5206A91
:1024000010F4407021D0A98801F4407181421CD0A1
:10241000206A1F49012220F440700A6000220A60ED
:102420002062C00711D0FFF78BFE074641F28838C3
:1024300008E000BFFFF784FEC11B414502D903201D
:10244000BDE8F883206A8007F4D5206A696820F423
:102450004070084320621EB1E06920F08050E061C6
:102460002878800705D56068A96820F440400843B3
:1024700060602878C00605D56068E96820F48000AF
:10248000084360600020DBE700100240007000405D
:10249000400442422DE9F0470F46050061D0434E0B
:1024A000306800F00700B84209D2306820F0070019
:1024B00038433060306800F00700B84251D12868D6
:1024C0003B4C810712D5400703D5606840F4E060BB
:1024D00060602878000703D5606840F46050606051
:1024E0006068A96820F0F000084360602878C007A1
:1024F00028D06868012810D02168022810D08907E8
:1025000000292EDA616821F0030101436160FFF7C1
:1025100017FE804641F288390DE021688903EFE714
:102520008901EDE7FFF70CFEA0EB0801494502D950
:102530000320BDE8F0876068696800F00C00B0EB2C
:10254000810FEFD1306800F00700B8420BD9306836
:1025500020F0070038433060306800F00700B842D0
:1025600001D00120E5E72878400705D56068E968D3
:1025700020F4E060084360602878000706D56068B2
:10258000296920F4605040EAC100606000F058F80A
:102590006168084AC1F30311515CC84006490860EC
:1025A00006480068FFF7ECFD0020C2E7002002406B
:1025B00000100240C69A0008580000205000002079
:1025C0000F2202600C4A536803F003034360536810
:1025D00003F0F0038360536803F4E063C360526860
:1025E0004FF4E06303EAD20202610448006800F09D
:1025F0000700086070470000001002400020024001
:102600000448054900684968044AC1F30221515C45
:10261000C84070475800002000100240D69A0008B9
:102620000448054900684968044AC1F3C221515C65
:10263000C84070475800002000100240D69A000899
:102640000E4A51680E4801F00C03042B11D0082BE0
:102650000FD10C48C1F38343C903C05C0AD551684C
:10266000084AC1F34041921E515C054A5043B0FBF9
:10267000F1F07047044948437047000000100240E1
:1026800000127A00A49A000800093D002DE9F84FD5
:10269000040070D02078C04DC00749D06868C0F3EE
:1026A0008100012807D06868C0F38100022809D1A1
:1026B0006868C00306D52868800339D5606800289B
:1026C000E7D035E06068B0F5803F0BD010B1B0F5D1
:1026D000A02F11D0286820F480302860286820F4CA
:1026E000802002E0286840F480302860606890B163
:1026F000FFF726FD06460AE0286840F4802028609F
:10270000F0E700BFFFF71CFD801B642873D8286822
:102710008003F7D50CE0FFF713FD064605E000BF88
:10272000FFF70EFD801B6428F0D828688003F7D4DB
:1027300020789A4E80074FF001094FF0000839D5F4
:10274000686810F00C0F07D06868C0F38100022899
:1027500009D16868C00306D42868800714D52069A9
:10276000012808D110E02069B0B1C6F80090FFF749
:10277000E7FC074605E00AE1FFF7E2FCC01B022880
:10278000C4D828688007F7D52868616920F0F80068
:1027900040EAC10028600DE0C6F80080FFF7D0FCD9
:1027A000074604E0FFF7CCFCC01B022823D82868AA
:1027B0008007F7D4207800072CD57948A169D9B1D2
:1027C000C0F80090FFF7BCFC074604E0FFF7B8FC38
:1027D000C01B02280FD8686A8007F7D571484FF4EC
:1027E000FA510068B0FBF1F0009000BF0098411E64
:1027F0000091FAD20EE080E0C0F80080FFF7A0FC64
:10280000074604E0FFF79CFCC01B022875D8686AE5
:102810008007F7D42078400760D5E8690027C0001A
:1028200008D4E86940F08050E861E869012700F0C9
:10283000805000905C480168C90513D40168834644
:1028400041F480710160FFF77BFC824606E000BF27
:10285000FFF776FCA0EB0A0064284ED8DBF80000F6
:10286000C005F5D5E06801280AD008B1052813D0C5
:10287000286A20F001002862286A20F0040002E0A3
:10288000286A40F001002862E06841F2883B98B174
:10289000FFF756FC82460BE0286A40F004002862ED
:1028A000EEE700BFFFF74CFCA0EB0A0159455AD8F0
:1028B000286A8007F6D50CE0FFF742FC824605E067
:1028C000FFF73EFCA0EB0A0159454CD8286A800767
:1028D000F6D41FB1E86920F08050E861E06988B360
:1028E0006968C1F38101022944D00228C6F86080DA
:1028F00004D0FFF725FC044638E034E0FFF720FC65
:10290000074604E0FFF71CFCC01B02282BD82868F0
:102910008001F7D4206AB0F5803F05D16868A168CE
:1029200020F4003008436860D4E90801084369686E
:1029300021F4741108436860C6F86090FFF700FC4A
:10294000044606E025E000BFFFF7FAFB001B022863
:1029500009D828688001F7D51BE000BFFFF7F0FB1E
:10296000001B022802D90320BDE8F88F28688001E7
:10297000F4D40EE00128F7D06868226A00F48031B0
:10298000914204D1616A00F47010884201D00120A4
:10299000EAE70020E8E700000010024000004242A1
:1029A0008004424258000020007000407047704789
:1029B00010B590F83C20012A22D0012280F83C205A
:1029C000CA688C6822F4407222434C6822F4806208
:1029D00022430C6822F4006222430C6922F48052E4
:1029E00022434C6922F400522243C969002322F495
:1029F00080420A4301684A6480F83C30002010BDE0
:102A0000022010BD70B590F83C20012A26D0012488
:102A100080F83C40022280F83D2003685A689D6897
:102A200022F070060A6832435A600D4B02689A42DF
:102A300008D0B2F1804F05D00A4B9A4202D00A4B1F
:102A40009A4204D1496825F080031943916080F8C7
:102A50003D40002180F83C10084670BD022070BD4A
:102A6000002C0140000400400008004010B50400A4
:102A700003D094F83D0010B107E0012010BD002004
:102A800084F83C00204600F01FF8022084F83D0046
:102A9000211D206802F0AAFC012084F8460084F879
:102AA0003E0084F83F0084F8400084F8410084F838
:102AB000420084F8430084F8440084F8450084F818
:102AC0003D00002010BD000008B5114A0168114802
:102AD000914208D1816941F400618161806900F40B
:102AE0000060009008BDB1F1804FFBD1C16941F099
:102AF0000101C161C069002200F0010000900521C0
:102B00001C20FFF7BBFBBDE808401C20FFF7A8BB5B
:102B1000002C01400010024090F83D10012901D026
:102B200001207047022180F83D100168CA6842F018
:102B30000102CA6000680B49884208D0B0F1804F9A
:102B400005D00949884202D00849884204D18168E9
:102B500001F00701062903D0016841F0010101607D
:102B600000207047002C0140000400400008004095
:102B700070B5044690F83C000025012817D00126C6
:102B800084F83C60022084F83D002068826822F0CE
:102B9000770222F47F4282600868502838D00DDC2A
:102BA00020284FD005DC90B3102811D14AE0022034
:102BB00070BD302846D040280AD13BE060282FD095
:102BC00070280DD0B0F5805F03D0B0F5005F12D053
:102BD000012584F83D60002084F83C00284670BD43
:102BE000CB68D1E90121206802F03CFC20688168B3
:102BF00041F0770109E0CB68D1E90121206802F0BA
:102C000031FC2068816841F480418160E1E719E08E
:102C1000CA684968206802F0D9FC5021206806E0A3
:102C2000CA684968206802F0E2FC6021206802F06E
:102C300023FCCEE7CA684968206802F0C7FC40213F
:102C40002068F4E7226801461046F0E770472DE956
:102C5000F04104460068C66805694FF00007A907FF
:102C600013D5B10711D5F91E016101202077206825
:102C700080698007204602D0FFF7E8FF04E000F0FB
:102C8000A5F8204600F037F92777680716D57007B2
:102C900014D521686FF004000861022020772068B5
:102CA000806910F4407F204602D0FFF7CFFF04E098
:102CB00000F08CF8204600F01EF92777280715D57C
:102CC000300713D521686FF00800086104202077D1
:102CD0002068C0698007204602D0FFF7B7FF04E0F4
:102CE00000F074F8204600F006F92777E80616D5BC
:102CF000F00614D521686FF01000086108202077D5
:102D00002068C06910F4407F204602D0FFF79EFF84
:102D100004E000F05BF8204600F0EDF82777E807C4
:102D200008D0F00706D021686FF001000861204646
:102D300000F0E2F8280608D5300606D521686FF0C5
:102D4000800008612046FFF731FE680608D570064E
:102D500006D521686FF040000861204600F0E0F8D9
:102D6000A8060AD5B00608D521686FF020000861D2
:102D70002046BDE8F041FFF71ABEBDE8F081000033
:102D800000B585B000210091019102910391006886
:102D90000B49884212D10B48816941F004018161DD
:102DA0008069694600F0040004904FF48070009040
:102DB0000220019003900448FFF7C0F805B000BD61
:102DC000002C01400010024000080140704770B51F
:102DD000044690F83C0000260D4601280FD0012043
:102DE00084F83C006AB1042A1DD0082A2FD00C2A8E
:102DF0003FD00126002084F83C00304670BD022000
:102E000070BD206802F040FB2068816941F0080134
:102E100081612068816921F00401816120688169F4
:102E20002A69114311E0206802F056FB206881698D
:102E300041F4006181612068816921F480618161D0
:102E4000206881692A6941EA02218161D2E720680C
:102E500002F06EFB2068C16941F00801C161206881
:102E6000C16921F00401C1612068C1692A69114367
:102E700011E0206802F088FB2068C16941F400611C
:102E8000C1612068C16921F48061C1612068C169A4
:102E90002A6941EA0221C161ACE710B5040003D000
:102EA00094F83D0010B107E0012010BD002084F827
:102EB0003C00204600F01EF8022084F83D00211D51
:102EC000206802F093FA012084F8460084F83E005E
:102ED00084F83F0084F8400084F8410084F8420000
:102EE00084F8430084F8440084F8450084F83D00E9
:102EF000002010BD7047704710B5044600680749B0
:102F0000884201D1FFF722F92068B0F1804F03D148
:102F1000BDE81040FEF76ABB10BD0000000800408D
:102F2000704738B5044690F84200202801D00220AE
:102F300038BD51B14AB101202063002060632046B2
:102F400002F01CFD216B012901D0012038BD216850
:102F50000A684968009121680C3151E8002F42F05D
:102F6000100241E80023002BF5D138BD10B50068F0
:102F7000104988421CD11048006840680E49404200
:102F8000C4B244314FF47A732246A1F1D40000F068
:102F90006CFA094821464430FDF76CF90649BDE852
:102FA000104044314FF48072A1F1D400FFF7B9BF53
:102FB00010BD0000003801406C0200200F4910B520
:102FC000884219D10EA10D4802F080FD0B494FF443
:102FD00080742246D4310948FFF7A3FF0748903098
:102FE0000068016821F00401016021460348BDE842
:102FF0001040D430FDF73EB910BD0000DC010020C8
:103000005541525431204572726F720D0A00000012
:10301000F8B5016804460868CA684B6910F00F0FDC
:103020004FF0000559D003F0010602F490773743C2
:1030300065D0C10705D0D10503D5616C41F0010110
:103040006164410705D5D90703D0616C41F00201E5
:103050006164810705D5D90703D0616C41F0040193
:103060006164010707D502F02001314303D0616C90
:1030700041F008016164616C00293AD0800604D5F2
:10308000900602D5204602F0BBFB20684069616CC7
:10309000C0F38010090700D460B3204602F07BFB28
:1030A00020684069400621D52068143050E8001F90
:1030B00021F0400140E80012002AF5D1E06BA8B1F0
:1030C0006D494163E06BFEF7CBFD002811D0E06B4A
:1030D000416B01B0BDE8F040084783060FD5930669
:1030E0000DD52046BDE8F84002F08ABB2046FFF728
:1030F00065FFF8BD2046FFF761FF6564F8BD266BEC
:103100002023012E7CD1C6067AD5D60678D508684C
:103110004868009048694FF00206400640D5E16BD0
:10312000086840680004000CE8D0A28D8242E5D90E
:10313000E085886920282DD020680C3050E8001FD9
:1031400021F4807140E80012002AF5D12068143083
:1031500050E8001F21F0010140E80012002AF5D1DB
:103160002068143050E8001F21F0400140E80012B0
:10317000002AF5D184F84230256320680C3050E8ED
:10318000001F21F0100140E80012002AF5D1E06B89
:10319000FEF742FD6663A08DE18D401A81B22AE000
:1031A000A08DE18D401A81B2E08D0028A6D00029C3
:1031B000A4D022680C3252E8000F20F4907042E84C
:1031C0000007002FF5D12068143050E8002F22F0BE
:1031D000010240E80027002FF5D184F84230256332
:1031E00020680C3050E8002F22F0100240E8002345
:1031F000002BF5D166632046FFF7B8FEF8BDFFE768
:1032000005062BD5150629D594F841002128F5D1BE
:10321000A068B0F5805F01D12069B0B1206A411C7F
:103220002162216800784860E08C401E0004000C98
:10323000E084E3D12068C16821F08001C16020688A
:10324000C16841F04001C160D8E7206A0088C0F33E
:1032500008004860206A801C2062E5E74006CDD562
:103260005006CBD5CA68204622F04002CA6084F8D6
:10327000413000F04AF9C1E79956000870B50400E2
:1032800004D094F84100002510B106E0012070BD83
:1032900084F84050204600F023F8242084F84100B0
:1032A0002068C16821F40051C160204602F00AFB89
:1032B0002068016921F4904101612068416921F091
:1032C0002A0141612068C16841F40051C160656410
:1032D000202084F8410084F842006563002070BD1E
:1032E000F0B585B00024009401940294039406463E
:1032F000374F0368374902200322374DBB423AD18A
:103300008B6943F480438B618B6903F4804304939E
:103310008B6943F004038B618969039201F0040116
:1033200004910102CDE9001069462846FEF706FE29
:103330002815CDE90004694628460294FEF7FEFDF3
:10334000274D2648C5E900048020C5E902402C61CC
:1033500040016C61C5E906402846FEF777FD08B1DB
:10336000FEF7A0F8F5630022052125206E62FEF726
:1033700085FF252028E01B4EB34227D1CB6943F4BB
:103380000033CB61CB6903F4003304938B6943F0C2
:1033900004038B618969039201F004010491042103
:1033A000CDE9001069462846FEF7C8FD0820CDE9A2
:1033B0000004694628460294FEF7C0FD002205215C
:1033C0002620FEF75BFF2620FEF74AFF05B0F0BD82
:1033D000003801400010024000080140580002403F
:1033E0006C0200200044004090F84230202B01D0B5
:1033F0000220704721B11AB10023036302F006BB1B
:103400000120704730B40068104988421CD1104A2E
:1034100000211088FA2800D311800E480388FA2B67
:1034200000D301800C490D4C0B7811886354491C62
:1034300011800B4A01885354491C018030BC012281
:1034400005490848FFF7D0BF30BC70470044004032
:103450003E0000204200002004000020F807002069
:10346000F80800202402002070472DE9F8430446A4
:1034700090F84100984616460D46202802D00220BA
:10348000BDE8F88385B17EB100206064212084F816
:103490004100FEF755FEA6848146E684A0682027F9
:1034A000B0F5805F02D003E00120E9E7206910B1A8
:1034B0002E4600250EE000260CE08021204602F07A
:1034C000C0FAA8B9C6B116F8010B21684860E08CB3
:1034D000401EE084E08C4B464FF00002CDF80080A7
:1034E0000028EAD14FF04001204602F0AAFA40B18C
:1034F00084F841700320C3E735F8020BC0F30800DD
:10350000E3E784F841700020BAE77047FEE7000067
:1035100000241F4E1F4D4FF4FA7700BF01F002F850
:1035200002F078F82046641CE4B2022805D119495B
:103530000024491C481EFDF75DFD1649481CFDF797
:1035400021FE02213046FEF7E9FDA870FEF742F8A1
:10355000E870D8B110A000BF02F0D2FA00F03EF837
:10356000FDF72AF902460B460EA002F0C9FAFDF754
:1035700053FCFDF721F902460B4610A002F0C0FAF9
:1035800001F074F9384604F0C5FEC7E711A0E3E77F
:103590000008014008000020E697A0E781AB0D0D70
:1035A000000000006D71E6B593E5BAA620EFBC9A65
:1035B000252E326670706D0D0A000000434FE6B58F
:1035C00093E5BAA620EFBC9A252E326670706D0D79
:1035D0000A000000E781AB0D0A0000002DE9F04170
:1035E0001E48FDF7E3FAFDF7D1F81D4F3946FCF709
:1035F000F0FE6FF00B01FCF71EFF0646FDF7DCF84E
:1036000004460D4622462B4616A002F079FA2046C3
:1036100029464FF0FF32FDF7A2F804460D46314629
:103620003846FCF7D0FEFDF7C7F822462B46FDF7DB
:1036300027F8FDF7EDF8FDF7BFF802460B464FF00F
:10364000005410481049FDF71BF822460F4B03F0B9
:103650000BFABDE8F041FDF7DBB80000EC000020FC
:103660000000A0404D7132E7839FE99BBEE6B59311
:10367000E5BAA65F766F6C203A20252E32660D0AD9
:1036800000000000E17A14C5100762407CE10040B0
:1036900010B50446007B012802D1206803F03EF8F3
:1036A000002020606060A060207310BD5FF0010208
:1036B00000F07F030B70C00909D043F08003521C57
:1036C00001F8013B042AF3DD4FF0FF30704710464C
:1036D00070472DE9F0410446002500680F462E464C
:1036E00010B10220207315E001202073084603F07A
:1036F00011F92060002808D0C4E9016702E02068C1
:1037000046556D1CA068A842F9D8BDE8F081206834
:1037100046556D1CA068A842F9D866608842F4D26C
:103720002660F2E72DE9FF5F9A4693460025104692
:10373000DDF844900E9F139CFCF7CFFD06B2BBF161
:10374000000F1FD006F111001FFA80F807B1022503
:10375000109868B145F00405FCF7BFFDC7B24846B4
:10376000FCF7BBFDC11901EB0800001D1FFA80F832
:103770000F9870B1012807D0022808D0022004B0A9
:10378000BDE8F09F0120FAE745F00C0501E045F0A7
:103790001405129808B145F02405009860B301980B
:1037A00050B345F0C0070098FCF797FD0546019817
:1037B000FCF793FD291801EB0800001D85B229468E
:1037C0002046FFF786FF2068C0B12946FCF752FD6E
:1037D000D4E90030411C102261601A54D4E9000180
:1037E0000144681FFFF762FF00B2002808DA204694
:1037F000FFF74EFF0520C2E70320C0E70420BEE725
:10380000616823680844411C616000221A54D4E9AD
:103810000030421C042162601954D4E90050421C5B
:103820004D2362602B54D4E90050421C6260512346
:103830002B54D4E90030451C542265601A54D4E955
:103840000050431C63602A54D4E90030421C62607B
:103850001954D4E90020411C61601754D4E90030A8
:10386000411C4FEA1A2261601A54D4E90030421C0C
:10387000626003F800A0D4E90030411C320A6160A4
:103880001A54D4E90020411C61601654D4E90001A7
:10389000084432465946FCF727FD606830446060B2
:1038A000780736D5B9F1000F01D10FF2D809109879
:1038B000FCF713FD85B2D4E90030411C2A0A61608F
:1038C0001A54D4E90020411C61601554D4E9000168
:1038D00008442A461099FCF707FD60682844606098
:1038E0004846FCF7FAFC85B2D4E90030411C2A0AAC
:1038F00061601A54D4E90020411C61601554D4E978
:10390000000108442A464946FCF7EEFC606828445A
:103910006060380618D50098FCF7DFFC85B2D4E962
:103920000030411C2A0A61601A54D4E90020411C6D
:1039300061601554D4E9000108442A460099FCF757
:10394000D3FC606828446060780618D50198FCF7BD
:10395000C4FC85B2D4E90030411C2A0A61601A54C3
:10396000D4E90020411C61601554D4E900010844E9
:103970002A460199FCF7B8FC606828446060002082
:10398000FDE60000000000002DE9FF4F81B09046E9
:103990004FF00006119C0F9A9A465FEA000BB14661
:1039A000314608D1012005B0BDE8F08F232816D09C
:1039B0002B2814D0761C0298805D0028F6D141F0A7
:1039C00030070AB147F0010706EB0A050E98AD1C57
:1039D00068B1012805D0022806D00320E3E70220C1
:1039E000E1E747F0020701E047F00407AD1CB8F13A
:1039F000000F03D098F80000022807D0691D204668
:103A0000FFF767FE206850B3691D14E05FF0000007
:103A100018F80010401C7D29FAD100F10409AAEB26
:103A20000900291A00912046C91CFFF752FE2068A0
:103A3000A8B10099C91CFCF71DFCD4E90020411C69
:103A400061601754D4E9000101442846FFF72EFEB7
:103A5000002806DA2046FFF71BFE0520A3E7042016
:103A6000A1E7616823680844411C320A61601A5466
:103A7000D4E90020411C61601654D4E900010844D7
:103A800032460299FCF730FC6068304460600E9961
:103A900059B12368411C4FEA1B2261601A54D4E9D2
:103AA0000030421C626003F800B0B8F1000F0ED085
:103AB00098F800000228D4E90001084409D05246D1
:103AC0004146FCF7BEFB616801EB0A006060002024
:103AD00069E74A464146FCF7B4FB616801EB09001F
:103AE000F4E7000030B591B01446149D03460091F0
:103AF0000BA2302104A802F013F800200DF1040CF1
:103B0000012100908CE823000246234604A90A20E4
:103B1000FFF73AFF002800D0012011B030BD0000AF
:103B2000247379732F25732F25732F7468696E673B
:103B30002F70726F70657274792F706F73740000DC
:103B40002DE9F0474FF00008089C1F4691468A4631
:103B5000060045460AD10120BDE8F08759F8250046
:103B600020B3FCF7BAFB6D1C8044EDB2BD42F5D327
:103B700007EB470101EB0805E91D2046AD1CFFF7E7
:103B8000A8FD2168A1B160688222431C63600A54C9
:103B9000D4E9000101442846FFF788FD00B200285F
:103BA00008DA2046FFF774FD0420D5E70220D3E7AA
:103BB0000320D1E7616823680844411C320A616030
:103BC0001A54D4E90020411C61601654002520E0FD
:103BD00059F82500FCF781FB0646020AD4E90030BB
:103BE000411C61601A54D4E900314A1C62605E5481
:103BF000D4E90001084459F825103246FCF774FB5B
:103C0000606823683044411C61606D1C03F800A0AB
:103C1000EDB2BD42DCD300209EE7F0B504460020A3
:103C200001235D05106012E0275C166807F07F072E
:103C300007FB03661660265C360601D4401CF0BD07
:103C4000DB01AB4202D36FF00100F0BD401C8842A3
:103C5000EADB4FF0FF30F0BD4178022901D00120AE
:103C60007047817819B1012901D0FF207047C078D1
:103C7000704700002DE9F84F04460078DDE90A7B23
:103C800000F00F0900200E460090C9F341011546CF
:103C90008BF80010984609F0080A6A460421601C57
:103CA000FFF7BBFF04440098641C022843D35FEA7B
:103CB000C97040D1208840BA28800099801C884271
:103CC0007AD83EA1A01CFCF7ECFA10B10F20BDE899
:103CD000F88F9BF8000020B101282DD002286BD16D
:103CE0002AE0BAF1000F67D12888401C02F012FECA
:103CF0003060002860D02988491CFCF7BBFA2A886C
:103D0000A11C3068FCF79DFA28880099081A801ECB
:103D100080B23880401C02F0FDFDC8F8000038B1C8
:103D20003988491CFCF7A6FA3A882888A41C33E095
:103D3000306802F0F3FC3FE02888009A811C914231
:103D40003AD8A11C08440C99008840BA08800C9805
:103D500090B32888401C02F0DDFD306060B32988F4
:103D6000491CFCF787FA2A88A11C3068FCF769FA1D
:103D700028880099081A001F80B23880401C02F081
:103D8000C9FDC8F800000028D2D03988491CFCF7CA
:103D900071FA3A882888241D0119D8F80000FCF728
:103DA00050FA2B213046FCF78EFA28B923213046F1
:103DB000FCF789FA00288AD0FF2088E7246372651F
:103DC000710000004178022904D1817811B9C078CE
:103DD0000A2801D0012070470020704738B50446FA
:103DE0000078FF210009421E0E2A01D3084638BD83
:103DF0000328FCD1002000906A460421601CFFF7D4
:103E00000CFF20440099401C022907D32278D207D6
:103E100004D1028852BA921C8A4201D9FF2038BDCF
:103E200004A1801CFCF73DFA08B10F2038BD032027
:103E300038BD000024637265710000000146FF2058
:103E40008A78002A0BD1CA78142A08D1087938B1A7
:103E5000012805D0022803D0802803D00220704713
:103E600000207047012070473EB5002111480091A5
:103E700001910F4A02910260816001730175012472
:103E80004FF460220461C2614160FDF7F5FC08B1A6
:103E9000FDF708FB0520CDE90004032002906946E8
:103EA0000448FDF767FC002801D0FDF7FBFA3EBD92
:103EB00000240140EC0000203EB50024114800948D
:103EC000019402940E498460016004730475012515
:103ED00005614FF460214460C161FDF7CDFC08B17C
:103EE000FDF7E0FA05200094CDE901506946054848
:103EF000FDF740FC002801D0FDF7D4FA3EBD0000DC
:103F0000002801401C010020094808B5416941F022
:103F1000010141614069002200F00100009005218B
:103F20000F20FEF7ABF9BDE808400F20FEF798B967
:103F30000010024010B5044A0021044802F04EFD72
:103F40000349086010BD0000949100083353000835
:103F5000000000202DE9F04786B000243B48009483
:103F6000019402940394816941F010018161816997
:103F700001F010010491816941F0200181618169A2
:103F800001F020010491816941F00401816181699E
:103F900001F004010491816941F0080181618069A7
:103FA000012200F008002A4E5503049029463046AD
:103FB000FEF7C1F8DFF89C90AF1000223946484662
:103FC000FEF7B9F8DFF890A00122C0215046FEF7B5
:103FD000B2F84FF44078002241465046FEF7ABF865
:103FE00000950125CDE90154694630460395FDF75A
:103FF000A5FF0226CDE90064694648460296FDF712
:104000009DFF10208DE8310069464846FDF796FF78
:1040100000970396CDE9015469464846FDF78EFFA7
:10402000C0201126CDE9000669465046CDE902457B
:10403000FDF784FF0320CDE90240CDE90086694603
:104040005046FDF77BFF06B0BDE8F0870010024048
:104050000010014000080140000C014010B596B06E
:1040600000240F9410941194129413941C2108A806
:104070001494FCF7FFF820216846FCF7FBF8284869
:10408000264901604721C0E9011440F2E731C0E947
:10409000031444618461FEF7E9FC08B1FDF702FAFC
:1040A0004FF480500F900FA91D48FEF761FD08B135
:1040B000FDF7F8F91A48FEF7F0FE08B1FDF7F2F93E
:1040C000139413A916481494FEF79CFC08B1FDF74D
:1040D000E9F96020CDE908040A940B940C940D943E
:1040E000002208A90E480E94FEF771FE08B1FDF7F4
:1040F000D9F900944FF40050CDE9044002940194A2
:104100000394694606480794FEF752FC08B1FDF790
:10411000C9F90348FEF734FE16B010BD002C01406B
:104120004C01002010B586B000241648009401947C
:104130000294039404944FF080410594016041F689
:104140001F41C0E901146321C0E903148461FEF733
:104150008DFC08B1FDF7A6F94FF480500090694638
:104160000848FEF705FD08B1FDF79CF9049404A981
:1041700004480594FEF746FC002801D0FDF792F9AB
:1041800006B010BD940100200C4810B50A4901602A
:104190004FF4E1314160002181600C22C160C0E92F
:1041A00004128161C161FFF769F8002803D0BDE8FE
:1041B0001040FDF777B910BD00380140DC01002048
:1041C0000C4810B50A4901604FF4E131416000210B
:1041D00081600C22C160C0E904128161C161FFF7F6
:1041E0004DF8002803D0BDE81040FDF75BB910BDC5
:1041F0000044004024020020FEE7000010B50F48F4
:10420000FEF78AFC01220E490E48FFF7EDF84FF445
:1042100080720D490D48FEF784FE01F00BF800F0A6
:1042200012FA00F07FF90A48FDF796FC0848FDF7FE
:1042300093FCBDE8104000F085B800009401002018
:104240000400002024020020B0020020DC01002035
:10425000EC000020144801F053FC4FF4807003F090
:104260000BFD040002D111A001F04AFC204604F02D
:1042700001F914A001F044FC214620A001F040FC0B
:10428000204603F0A3FF1FA001F03AFC2C4D4FF491
:1042900000544FF47A7621462846FDF744FF304615
:1042A00004F038F8F7E70000809B0008E58685E514
:1042B000AD98E58886E9858DE5A4B1E8B4A50D0A39
:1042C00000000000E4BBBBE58AA1E5908D0909E789
:1042D0008AB6E6808109E4BC98E58588E7BAA70933
:1042E000E589A9E4BD99E6A08809E4BBBBE58AA1FC
:1042F000E5BA8FE58FB70D0A0000000025730D0A9F
:10430000000000002F2A2A2A2A2A2A2A2A2A2A2AB0
:104310002A2A2A2A2A2A2A2A2AE5AE9EE9AA8CE7EC
:10432000BB93E69D9F2A2A2A2A2A2A2A2A2A2A2A4F
:104330002A2A2A2A2A2A2A2A2A2A2A2F0D0A000069
:10434000001001407CB52B490C20CDE90001002371
:1043500040F2EE2228A12C4804F00EFD254C103C22
:10436000206910B929A001F0CBFB22480A250838A2
:10437000CDE90050002380222CA12F4804F0FCFC42
:10438000A06810B92DA001F0BBFB1A480023001F44
:10439000CDE900504FF480722FA1334804F0ECFCBB
:1043A000E06810B931A001F0ABFB12480B25001DED
:1043B000CDE900504FF400760023324632A1364852
:1043C00004F0DAFC606910B934A001F099FB0948E7
:1043D00000230830CDE90050324638A13B4804F0B4
:1043E000CBFCA069002804D1BDE87C4038A001F0D6
:1043F00087BB7CBD180000204573704C696E6B5FF5
:104400005461736B00000000A91400084573704CE0
:10441000696E6B5F5461736B2063726561746520B4
:104420006661696C65640D0A000000004D795F4C9F
:1044300065645F5461736B00554200084D795F4CB1
:1044400065645F5461736B20637265617465206697
:1044500061696C65640D0A004D795F486F6D655F39
:104460005461736B0000000011350008486F6D65E2
:104470005F5461736B206372656174652066616966
:104480006C65640D0A00000053656E644D73675FD0
:104490005461736B000000001145000853656E64A1
:1044A0004D73675F5461736B20637265617465203F
:1044B0006661696C65640D0A0000000052656376F0
:1044C0004D73675F5461736B00000000F544000892
:1044D000526563764D73675F5461736B20637265D9
:1044E000617465206661696C65640D0A00000000F6
:1044F000FEE70000054C0220FDF7A0F8606008B15F
:1045000000F06CFD322003F005FFF4E70800002006
:104510004FF47A7400F01AFEFCF75AFE204603F0BE
:10452000F9FEF7E710B50021074C0A46002004EB1E
:10453000C1131A54401CC0B28028FAD3491CC9B216
:104540000829F3D310BD0000F8030020F0B57F2840
:104550002AD83F2928D88418802C02D9C0F180029B
:10456000D2B2CC18402C02D9C1F14003DBB20126F3
:10457000DFF838E087180B4414E001F0070206FA70
:1045800002F5CA0804460EEBC21207E012F804C096
:104590002CEA050C02F804C0641CE4B2A742F5D86A
:1045A000491CC9B28B42E8D8F0BD0000F8030020D6
:1045B00010B500204FF47A720021491C9142FCD3BF
:1045C000401C9042F8D3012000F064F9BDE810408F
:1045D000012000F067B970B500240646802525FA51
:1045E00004F0304000D0012000F05CF9012000F020
:1045F00051F9002000F04EF9641CE4B2082CEED30F
:10460000012000F047F9BDE87040002000F042B9F9
:1046100010B5012000F046F9012000F03BF9002020
:1046200000F040F9BDE81040002000F033B910B5AB
:10463000002000F037F9012000F02CF9BDE810400F
:10464000012000F02FB910B5FFF7B2FFAE2000F047
:1046500031F9D52000F02EF9802000F02BF9A820A8
:1046600000F028F93F2000F025F9D32000F022F9CE
:10467000002000F01FF9402000F01CF9A12000F0FC
:1046800019F9C82000F016F9DA2000F013F9122009
:1046900000F010F9812000F00DF9CF2000F00AF9A8
:1046A000D92000F007F9F12000F004F9DB2000F038
:1046B00001F9302000F0FEF8A42000F0FBF8A6205D
:1046C00000F0F8F88D2000F0F5F8142000F0F2F872
:1046D000BDE81040AF2000F0EDB80246012000E038
:1046E0005043491EFCD2704710B50C4640F0B00054
:1046F00000F0E0F8102040EA141000F0DBF804F0BD
:104700000F00BDE8104000F0D5B8000008B5082B38
:104710000DD0062B0AD10A4B02EB420203EB4202F8
:10472000C03A00920823062200F00EF808BD054B9F
:1047300003EB0212A2F50072102300920822F3E7A5
:10474000A8970008B89100082DE9FC4F1F461546B0
:104750000C4606467F284AD83F2C48D8FFF7F6FE7D
:10476000781EC117002300EB51700121DFF884B0DF
:1047700004F0070901EBE00737E0002031E03118D1
:104780007F2930D803EBD40ABAF1070F2FD80BEBEF
:10479000CA1E03FB05F21EF801C00192DDF82C8051
:1047A0008044CDF8008012F8082002FA09F24CEAA1
:1047B000020C0AF101020EF801C0072A0FD80EEB15
:1047C0000108DDE900C198F8802011F80CC0C9F19A
:1047D00008012CFA01FC42EA0C0288F88020401CF7
:1047E000C0B2A842CBD35B1CDBB29F42C5DCBDE8A4
:1047F000FC8F0000F80300202DE9F04700241D463F
:1048000090468A4681460A27089E14E0291B0A2002
:10481000491EFFF762FFB8FBF0F0B0FBF7F107FBB2
:10482000110204FB0690C0B2334651463032FFF706
:104830006DFF641CE4B2AC42E8D3BDE8F0872DE91B
:10484000F0411E46154688460746002408E004FB52
:104850000670C0B233464146FFF758FF641CE4B20D
:104860002A5D002AF3D1BDE8F081000070B5084D43
:10487000002400212046FFF737FF05EBC4108021FC
:1048800000F029F8641CE4B2082CF2D370BD0000DB
:10489000F803002002464FF480710148FDF74BBC3D
:1048A000000C014002464FF400710148FDF743BC83
:1048B000000C014010B50446FFF7AAFE7820FFF770
:1048C0008AFE0020FFF787FE2046FFF784FEBDE842
:1048D0001040FFF7ACBE70B50D460646FFF798FED8
:1048E0007820FFF778FE4020FFF775FE002404E0F3
:1048F000305DFFF770FE641CE4B2AC42F8D3BDE853
:104900007040FFF794BE00002DE9F0438BB00546E0
:104910000024FBF7E2FCC6B21DB1002069461C2E44
:1049200008D201200BB0BDE8F0832A5D0A55285556
:10493000641CE4B2B442F8D3085500278146884687
:104940003C4621E018F807002B2812D008DC20286C
:1049500012D0232827D0252822D0262806D125E0CA
:104960002F2817D03D2824D03F2816D02855641C66
:1049700007E0281910A101E0281910A1FBF785FC18
:10498000E41C7F1CE4B2FFB2B742DBD305F804900D
:104990000020C7E728190AA1F0E7281909A1EDE7C7
:1049A000281909A1EAE7281908A1E7E7281908A1A9
:1049B000E4E7281907A1E1E725324200253230005B
:1049C0002532460025334600253235002532330096
:1049D00025323600253344002DE9F04FC9B04FF0A1
:1049E000000ADDE954B8DDF848911F4615460C462B
:1049F0000600CDF81CA109D044B13D48854205D33D
:104A000027B1539810B1BBF1780F03D2012049B000
:104A1000BDE8F08F402137A8FBF72CFC3846FBF7A8
:104A20005CFC00903B4647AA402137A8FCF7CCF835
:104A3000482115A8FBF71EFCB8F1000F09D02DA0E6
:104A40008DE851002B462DA2482115A801F068F8E9
:104A500009E028A103968DE812022B462DA24821D9
:104A600015A801F05DF8402127A8FBF703FC15A865
:104A7000FBF733FC074637A8FBF72FFC014627A8B6
:104A800000903B4615AA37A801F08CFE402105A8EE
:104A9000CDF81CA1FBF7EEFB27A8FBF71EFC00904E
:104AA00027AB47AA402105A8FCF72AF905A8FFF77C
:104AB0002BFF05A8B8F1000F0BD00EA1CDE9021015
:104AC00033461CA25946CDE90045539801F028F819
:104AD0000BE008A20295CDE90320CDE90049334659
:104AE000224A5946539801F01BF800208FE7000036
:104AF0009554415D736861310000000025640A250A
:104B0000730A70726F64756374732F25730A25734B
:104B10000000000025640A25730A70726F647563D3
:104B200074732F25732F646576696365732F2573FE
:104B30000A25730076657273696F6E3D2573267260
:104B400065733D70726F64756374732525324625F5
:104B5000732665743D2564266D6574686F643D2514
:104B600073267369676E3D2573000000C49B0008BF
:104B700000B595B00020019002900390049005A824
:104B8000139010A0009010A312A2382105A800F0E5
:104B9000C7FF05AA17A11D4800F098FF01A80090C3
:104BA000012313AA00211420FEF7CAFF002807D111
:104BB000029881B20198FCF74FFC01A8FEF768FD4E
:104BC00015B000BD64310000356E5056354F313898
:104BD000304A0000247379732F25732F25732F74A7
:104BE00068696E672F70726F70657274792F736564
:104BF0007400000053756273637269626520546FBC
:104C00007069633A2025730D0A000000DC01002062
:104C100070B5B4B000242E942F943094A02006AE2A
:104C20002DA1CDE90016CDE9020401252BA3374AB9
:104C3000319437A139A0FFF7CFFE35A326A23AA1C0
:104C40004548009600F042FF2EA8CDE9044001201F
:104C5000CDE90004029403944FF47A731EA206A9CE
:104C60002BA0FEF75FFD30B13CA13B4800F02EFFCA
:104C700034B0284670BD2F9881B22E98FCF7ECFB1B
:104C8000FA20FCF797F904001FD0FFF7A7F80228D5
:104C90001BD12046FEF7E0FF06281AD2DFE800F01D
:104CA00003090B0D0F1136A12B4800F00FFF002553
:104CB0000BE039A106E041A104E04BA102E054A1C0
:104CC00000E05FA1244800F001FF2EA8FEF7E0FC01
:104CD000CEE769A1F6E700006431000051555A495A
:104CE00053544647576A52435A6D4A48575770744F
:104CF000646A52455A334E766247704B59576F3249
:104D0000516C5A435156633D0000000000CF9D7422
:104D1000356E5056354F3138304A00003230313818
:104D20002D31302D333100004F6E654E45545F44B8
:104D300065764C696E6B0D0A4E414D453A202573E0
:104D40002C0950524F49443A2025732C094B4559A0
:104D50003A25730D0A000000DC0100205741524E35
:104D60003A094D5154545F5061636B6574436F6EE3
:104D70006E656374204661696C65640D0A0000000D
:104D8000546970733A09E8BF9EE68EA5E68890E5FF
:104D90008A9F0D0A000000005741524E3A09E8BFB1
:104DA0009EE68EA5E5A4B1E8B4A5EFBC9AE58D8F8B
:104DB000E8AEAEE99499E8AFAF0D0A005741524E04
:104DC0003A09E8BF9EE68EA5E5A4B1E8B4A5EFBC1C
:104DD0009AE99D9EE6B395E79A84636C69656E7463
:104DE00069640D0A000000005741524E3A09E8BFBD
:104DF0009EE68EA5E5A4B1E8B4A5EFBC9AE69C8D2D
:104E0000E58AA1E599A8E5A4B1E8B4A50D0A0000DA
:104E10005741524E3A09E8BF9EE68EA5E5A4B1E897
:104E2000B4A5EFBC9AE794A8E688B7E5908DE6882C
:104E300096E5AF86E7A081E99499E8AFAF0D0A0047
:104E40005741524E3A09E8BF9EE68EA5E5A4B1E867
:104E5000B4A5EFBC9AE99D9EE6B395E993BEE68EB4
:104E6000A528E6AF94E5A682746F6B656EE99D9EFA
:104E7000E6B395290D0A00004552523A09E8BF9E53
:104E8000E68EA5E5A4B1E8B4A5EFBC9AE69CAAE736
:104E90009FA5E99499E8AFAF0D0A000010B58CB05A
:104EA000044630216846FBF7E5F927A12046FBF7C9
:104EB0002FFA30216846FBF7DDF9294829A102784D
:104EC000684600F047FE69462046FBF7DEF93021D0
:104ED0006846FBF7CFF9294829A10278684600F017
:104EE00039FE69462046FBF7D0F930216846FBF7CA
:104EF000C1F92948007808B128A200E029A22BA115
:104F0000684600F027FE69462046FBF7BEF93021CF
:104F10006846FBF7AFF92A48007808B121A200E003
:104F20001EA228A1684600F015FE69462046FBF740
:104F3000ACF929A12046FBF7A8F92046FBF7CDF9EB
:104F40000CB0C0B210BD00007B226964223A22314D
:104F50003233222C22706172616D73223A7B000021
:104F6000090000202274656D70223A7B2276616C04
:104F70007565223A25647D2C0000000008000020A1
:104F80002268756D69223A7B2276616C7565223ADA
:104F900025647D2C000000004800002066616C73D1
:104FA000650000007472756500000000224C4544E5
:104FB000223A7B2276616C7565223A25737D2C003E
:104FC000490000202242656570223A7B2276616C9E
:104FD0007565223A25737D007D7D000010B588B08F
:104FE0000446002003900490ADF81400ADF81800BA
:104FF0008DF81C002046FEF7F1FE032804D004289B
:105000002BD0092836D12EE01D4A07A906A88DE825
:10501000070003AB05AA04A92046FEF72BFE0400F7
:105020000FD118A1234800F051FDBDF818100398C6
:10503000CDE90001BDF814301FA11E48049A00F00C
:1050400045FDFCF7D3F8641C05D0049801F066FB1D
:10505000039801F063FB08B010BD2046FEF7B2FED6
:1050600040B924A004E02046FEF7E8FE28B129A0BC
:1050700000F046FDFCF7BAF8EDE72DA0F8E70000D8
:10508000460000202D2D2D2D2D2D2D2D2D2D2D2D9E
:105090002D2D2D2D2D2D2D2D2D2D2D2D2D2D2D2D40
:1050A0002D2D2D2D2D2D2D2D2D2D2D2D2D2D2D2D30
:1050B0002D2D0000DC010020746F7069633A2025FB
:1050C000732C20746F7069635F6C656E3A20256481
:1050D0002C207061796C6F61643A2025732C2070EC
:1050E00061796C6F61645F6C656E3A2025640D0AAE
:1050F00000000000546970733A094D515454205017
:1051000075626C6973682053656E64204F4B0D0A9D
:1051100000000000546970733A094D5154542053F3
:105120007562736372696265204572720D0A0000D0
:10513000546970733A094D51545420537562736326
:1051400072696265204F4B0D0A00000030B5ADF565
:10515000057D0020819082908390044684901CA15C
:10516000234800F0B3FC4FF4007101A8FBF782F86C
:1051700001A8FFF793FE05000CD081A80090002342
:105180002A461CA11CA0FEF7ADFC80B11DA1184849
:1051900000F09CFC0DF5057D30BD015DDDE981234E
:1051A000D1548299491C641C24B2829100E001A868
:1051B000AC42F2DB829881B28198FCF727F919A101
:1051C0000B48829A00F082FC81A8FEF761FAE1E7C1
:1051D000546970733A094F6E654E65745F53656E1E
:1051E00064446174612D4D5154540D0A0000000057
:1051F000DC01002064310000356E5056354F3138E7
:10520000304A00005741524E3A094544505F4E65BE
:1052100077427566666572204661696C65640D0A41
:105220000000000053656E64202564204279746597
:10523000730D0A0070B58CB01C216846FBF71AF894
:105240004FF480700225CDE90705002407A9104816
:10525000CDE90945FCF772FE0F4E0E484722316832
:1052600015C140F2E732E1E80224802261E80442FD
:1052700000F0BCF860200090049440F2F310CDE9F7
:105280000105002269463068FDF7A1FD0CB070BD34
:1052900000080140002C01403000002003490A783A
:1052A00002704A7842708978817070472600002029
:1052B00070B50D460646FBF72BFFFBF7A9FE104C19
:1052C0002070FBF713FF6070FBF710FFA070FBF777
:1052D0000DFFE070FBF70AFF2071FBF707FF60711D
:1052E0006178A2788B18E2782479134423448342AE
:1052F00003D129703270012070BD002070BD000004
:10530000340000201FB50022CDE900120121CDE9B3
:1053100002126946FCF712FE1FBD1FB50022009164
:105320000121CDE90112032103916946FCF706FE34
:105330001FBDFEF763FF002003F012F8FEE710B573
:105340004FF0E020006903F06FFD012803D0BDE8B5
:10535000104003F09DBA10BD30B593B028216846C7
:10536000FAF788FF14210AA8FAF784FF0025012024
:105370000F9510951195010412958DE82300049066
:105380004FF4E010CDE90810022407946846FDF7B9
:105390007DF908B172B6FEE70AA90F2081E8310055
:1053A0004FF48060CDE90D0502210AA8FDF772F8DF
:1053B00008B172B6FEE74FF4004011900F940FA8A9
:1053C000FCF7F2FF002801D072B6FEE713B030BD43
:1053D000704700000148FDF73ABC0000940100202E
:1053E0000148FDF734BC0000B0030020F0B50268AE
:1053F000194B1A4C1A4D4FF08047984205D0B842CD
:1054000003D0A04201D0A84203D122F070064A681E
:105410003243984205D0B84203D0A04201D0A842FE
:1054200003D122F44074CA6822434C6922F08002FE
:10543000224302608A68C2620A688262984201D18D
:1054400009690163012141610169C90703D001694B
:1054500021F001010161F0BD002C01400004004079
:105460000008004010B5846842EA032224F47F4417
:105470000A432243826010BD826822F070020A4310
:1054800042F007018160704730B5036A026A22F07A
:10549000010202624268846924F073050C682C439F
:1054A00023F002058B682B430A4DA8420BD123F051
:1054B0000805CB6822F440722B434D6923F00403A6
:1054C00015438A692A4342608461496841630362E3
:1054D00030BD0000002C014030B5026A036A23F0A1
:1054E00010030362436884690D6824F4E64444EAC7
:1054F00005248D6822F0200242EA05120B4DA842D5
:105500000ED1CD6822F0800242EA05124D6923F4E3
:10551000406343EA85038D6922F0400243EA850334
:105520004360846149688163026230BD002C0140A0
:1055300030B5036A026A22F4807202624268C4696A
:1055400023F4007324F073050C682C438D6843EA40
:1055500005230C4DA8420ED1CD6823F4006343EA25
:1055600005234D6922F4405242EA05128D6923F465
:10557000806342EA05124260C4614968C163036204
:1055800030BD0000002C014030B5046A026A22F4EC
:10559000805202624268C3690D6823F4E64343EA1D
:1055A00005238D6824F4005444EA0534064DA842CE
:1055B00004D14D6922F4804242EA85124260C361FF
:1055C00049680164046230BD002C014010B5036AD3
:1055D000046A24F001040462846924F0F00444EABB
:1055E000021423F00A020A438461026210BD10B55E
:1055F000036A046A24F010040462846923F0A0039F
:1056000024F4704444EA023243EA011182610162E7
:1056100010BD00001CB5194C4FF00803207801287C
:1056200024D017A200212020FFF709F92078401C80
:10563000207001A8FFF732FE0824002100949DF895
:10564000042002230846FFF7D7F800949DF80520B0
:10565000022300213820FFF7CFF800949DF80620A0
:10566000022300215020FFF7C7F81CBD07A200212C
:105670002020FFF7E4F80020DAE7000024000020F3
:1056800020202020202020200000000020203A2080
:10569000203A20200000000010B5406A0021C1859A
:1056A000C184FDF78BFC10BD70B5446A2068406969
:1056B00094F84110C0F3C0100025212904D118B17D
:1056C000E584204600F08EF82068406994F8421086
:1056D000C0F38010222904D118B1E585204600F0DE
:1056E0005AF8606C40F0100060642046FDF766FCDC
:1056F00070BD10B50146406A096809684FF00002A4
:1057000089062ED4C28501680C3151E8003F23F48C
:10571000807341E80034002CF5D10168143151E860
:10572000003F23F0010341E80034002CF5D101686B
:10573000143151E8003F23F0400341E80034002CCD
:10574000F5D1202180F84210016B012909D10168AF
:105750000C3151E8003F23F0100341E80034002CE5
:10576000F5D14263016B012902D0FDF74BFE10BD5C
:10577000818DFDF7FBFB10BD10B5406A012141632F
:10578000016B012902D0FDF76FFE10BD818D490824
:10579000FDF7ECFB10BD01680C3151E8002F22F43D
:1057A000907241E80023002BF5D10168143151E8D3
:1057B000002F22F0010241E80023002BF5D1016BFC
:1057C000012909D101680C3151E8002F22F01002A3
:1057D00041E80023002BF5D1202180F84210002160
:1057E0000163704701680C3151E8002F22F0C002BC
:1057F00041E80023002BF5D1202180F841107047AB
:1058000008B590F84210222901D0022008BD826814
:105810004FF480539A4201D1016921B1816A9A42C1
:105820001BD04AB10AE00268816A5268C2F30802DA
:105830000A80816A891C08E0026972B102685268B4
:1058400002F07F020A70816A491C8162C18D491E83
:105850000904090CC18503D01BE002685268F1E716
:105860000168CA6822F02002CA600168CA6822F48E
:105870008072CA6001684A6922F001024A612021EF
:1058800080F8421000214163026B012A03D0FDF72A
:10589000B9FD002008BD016301680C3151E8002FFB
:1058A00022F0100241E80023002BF5D101680A68BC
:1058B000D20602D50A6849680091818DFDF756FB32
:1058C000E7E7000070B5044600680169E26821F46A
:1058D0004051114301612169A0680843616908438F
:1058E0002168CA6841F20C639A430243CA60206887
:1058F0004169A26921F44071114341611E49206848
:10590000884202D1FCF78CFE01E0FCF779FE00EB47
:10591000C00101EB0012606864218000B2FBF0F36B
:10592000B3FBF1F36FF018067343B2FBF0F5B2FB73
:10593000F0F605EB8305322303EB0515B5FBF1F516
:10594000B6FBF1F605F0F00505EB0615B2FBF0F637
:10595000B2FBF0F0B0FBF1F06FF01802504306EB31
:10596000800003EB0010B0FBF1F0216800F00F00A5
:105970002844886070BD00000038014038B581625D
:1059800004468285002013466064222284F8422067
:10599000E56B1B4AAA62E56B1A4AEA62E56B1A4A92
:1059A0002A63E26B50630A462168E06B091DFCF72D
:1059B0007BFA2068016840680090206948B120683F
:1059C0000C3050E8001F41F4807140E80012002ABA
:1059D000F5D12068143050E8001F41F0010140E883
:1059E0000012002AF5D12068143050E8001F41F061
:1059F000400140E80012002AF5D1002038BD000027
:105A0000F356000879570008A9560008816282857C
:105A1000C28500214164222180F84210016921B130
:105A20000168CA6842F48072CA6001684A6942F03B
:105A300001024A610068C16841F02001C160002094
:105A400070472DE9F843984617460D460446089ED0
:105A500024E0701C22D0FCF773FBA0EB0800B042DE
:105A60001AD8CEB12068C168490717D5802D15D046
:105A7000402D13D00168C94309070FD401680025E0
:105A8000406800902046FFF786FE0820606484F896
:105A900040500120BDE8F8830320FBE72068006840
:105AA00035EA000004D00020B842D2D00020F1E74F
:105AB0000120F9E70148FDF7ABBA0000DC01002046
:105AC0000148FDF7A5BA0000240200200FB44FF4EE
:105AD000007110B5ADF5007D044684AB6846839A2D
